{
  "_format": "hh-sol-artifact-1",
  "contractName": "LBToken",
  "sourceName": "contracts/LBToken.sol",
  "abi": [
    {
      "inputs": [
        {
          "internalType": "address",
          "name": "_owner",
          "type": "address"
        }
      ],
      "stateMutability": "nonpayable",
      "type": "constructor"
    },
    {
      "anonymous": false,
      "inputs": [
        {
          "indexed": true,
          "internalType": "address",
          "name": "owner",
          "type": "address"
        },
        {
          "indexed": true,
          "internalType": "address",
          "name": "spender",
          "type": "address"
        },
        {
          "indexed": false,
          "internalType": "uint256",
          "name": "value",
          "type": "uint256"
        }
      ],
      "name": "Approval",
      "type": "event"
    },
    {
      "anonymous": false,
      "inputs": [
        {
          "indexed": true,
          "internalType": "address",
          "name": "from",
          "type": "address"
        },
        {
          "indexed": true,
          "internalType": "address",
          "name": "to",
          "type": "address"
        },
        {
          "indexed": false,
          "internalType": "uint256",
          "name": "value",
          "type": "uint256"
        }
      ],
      "name": "Transfer",
      "type": "event"
    },
    {
      "inputs": [
        {
          "internalType": "address",
          "name": "owner",
          "type": "address"
        },
        {
          "internalType": "address",
          "name": "spender",
          "type": "address"
        }
      ],
      "name": "allowance",
      "outputs": [
        {
          "internalType": "uint256",
          "name": "",
          "type": "uint256"
        }
      ],
      "stateMutability": "view",
      "type": "function"
    },
    {
      "inputs": [
        {
          "internalType": "address",
          "name": "spender",
          "type": "address"
        },
        {
          "internalType": "uint256",
          "name": "amount",
          "type": "uint256"
        }
      ],
      "name": "approve",
      "outputs": [
        {
          "internalType": "bool",
          "name": "",
          "type": "bool"
        }
      ],
      "stateMutability": "nonpayable",
      "type": "function"
    },
    {
      "inputs": [
        {
          "internalType": "address",
          "name": "account",
          "type": "address"
        }
      ],
      "name": "balanceOf",
      "outputs": [
        {
          "internalType": "uint256",
          "name": "",
          "type": "uint256"
        }
      ],
      "stateMutability": "view",
      "type": "function"
    },
    {
      "inputs": [],
      "name": "decimals",
      "outputs": [
        {
          "internalType": "uint8",
          "name": "",
          "type": "uint8"
        }
      ],
      "stateMutability": "view",
      "type": "function"
    },
    {
      "inputs": [
        {
          "internalType": "address",
          "name": "spender",
          "type": "address"
        },
        {
          "internalType": "uint256",
          "name": "subtractedValue",
          "type": "uint256"
        }
      ],
      "name": "decreaseAllowance",
      "outputs": [
        {
          "internalType": "bool",
          "name": "",
          "type": "bool"
        }
      ],
      "stateMutability": "nonpayable",
      "type": "function"
    },
    {
      "inputs": [
        {
          "internalType": "address",
          "name": "spender",
          "type": "address"
        },
        {
          "internalType": "uint256",
          "name": "addedValue",
          "type": "uint256"
        }
      ],
      "name": "increaseAllowance",
      "outputs": [
        {
          "internalType": "bool",
          "name": "",
          "type": "bool"
        }
      ],
      "stateMutability": "nonpayable",
      "type": "function"
    },
    {
      "inputs": [
        {
          "internalType": "uint256",
          "name": "amount",
          "type": "uint256"
        }
      ],
      "name": "mint",
      "outputs": [],
      "stateMutability": "nonpayable",
      "type": "function"
    },
    {
      "inputs": [],
      "name": "name",
      "outputs": [
        {
          "internalType": "string",
          "name": "",
          "type": "string"
        }
      ],
      "stateMutability": "view",
      "type": "function"
    },
    {
      "inputs": [],
      "name": "owner",
      "outputs": [
        {
          "internalType": "address",
          "name": "",
          "type": "address"
        }
      ],
      "stateMutability": "view",
      "type": "function"
    },
    {
      "inputs": [],
      "name": "symbol",
      "outputs": [
        {
          "internalType": "string",
          "name": "",
          "type": "string"
        }
      ],
      "stateMutability": "view",
      "type": "function"
    },
    {
      "inputs": [],
      "name": "totalSupply",
      "outputs": [
        {
          "internalType": "uint256",
          "name": "",
          "type": "uint256"
        }
      ],
      "stateMutability": "view",
      "type": "function"
    },
    {
      "inputs": [
        {
          "internalType": "address",
          "name": "to",
          "type": "address"
        },
        {
          "internalType": "uint256",
          "name": "amount",
          "type": "uint256"
        }
      ],
      "name": "transfer",
      "outputs": [
        {
          "internalType": "bool",
          "name": "",
          "type": "bool"
        }
      ],
      "stateMutability": "nonpayable",
      "type": "function"
    },
    {
      "inputs": [
        {
          "internalType": "address",
          "name": "from",
          "type": "address"
        },
        {
          "internalType": "address",
          "name": "to",
          "type": "address"
        },
        {
          "internalType": "uint256",
          "name": "amount",
          "type": "uint256"
        }
      ],
      "name": "transferFrom",
      "outputs": [
        {
          "internalType": "bool",
          "name": "",
          "type": "bool"
        }
      ],
      "stateMutability": "nonpayable",
      "type": "function"
    }
  ],
  "bytecode": "0x608060405234801562000010575f80fd5b5060405162001ced38038062001ced833981810160405281019062000036919062000301565b6040518060400160405280600281526020017f4c420000000000000000000000000000000000000000000000000000000000008152506040518060400160405280600281526020017f4c420000000000000000000000000000000000000000000000000000000000008152508160039081620000b3919062000595565b508060049081620000c5919062000595565b505050620000e6336b033b2e3c9fd0803ce80000006200012d60201b60201c565b8060055f6101000a81548173ffffffffffffffffffffffffffffffffffffffff021916908373ffffffffffffffffffffffffffffffffffffffff160217905550506200078a565b5f73ffffffffffffffffffffffffffffffffffffffff168273ffffffffffffffffffffffffffffffffffffffff16036200019e576040517f08c379a00000000000000000000000000000000000000000000000000000000081526004016200019590620006d7565b60405180910390fd5b620001b15f83836200029260201b60201c565b8060025f828254620001c4919062000724565b92505081905550805f808473ffffffffffffffffffffffffffffffffffffffff1673ffffffffffffffffffffffffffffffffffffffff1681526020019081526020015f205f82825401925050819055508173ffffffffffffffffffffffffffffffffffffffff165f73ffffffffffffffffffffffffffffffffffffffff167fddf252ad1be2c89b69c2b068fc378daa952ba7f163c4a11628f55a4df523b3ef836040516200027391906200076f565b60405180910390a36200028e5f83836200029760201b60201c565b5050565b505050565b505050565b5f80fd5b5f73ffffffffffffffffffffffffffffffffffffffff82169050919050565b5f620002cb82620002a0565b9050919050565b620002dd81620002bf565b8114620002e8575f80fd5b50565b5f81519050620002fb81620002d2565b92915050565b5f602082840312156200031957620003186200029c565b5b5f6200032884828501620002eb565b91505092915050565b5f81519050919050565b7f4e487b71000000000000000000000000000000000000000000000000000000005f52604160045260245ffd5b7f4e487b71000000000000000000000000000000000000000000000000000000005f52602260045260245ffd5b5f6002820490506001821680620003ad57607f821691505b602082108103620003c357620003c262000368565b5b50919050565b5f819050815f5260205f209050919050565b5f6020601f8301049050919050565b5f82821b905092915050565b5f60088302620004277fffffffffffffffffffffffffffffffffffffffffffffffffffffffffffffffff82620003ea565b620004338683620003ea565b95508019841693508086168417925050509392505050565b5f819050919050565b5f819050919050565b5f6200047d6200047762000471846200044b565b62000454565b6200044b565b9050919050565b5f819050919050565b62000498836200045d565b620004b0620004a78262000484565b848454620003f6565b825550505050565b5f90565b620004c6620004b8565b620004d38184846200048d565b505050565b5b81811015620004fa57620004ee5f82620004bc565b600181019050620004d9565b5050565b601f82111562000549576200051381620003c9565b6200051e84620003db565b810160208510156200052e578190505b620005466200053d85620003db565b830182620004d8565b50505b505050565b5f82821c905092915050565b5f6200056b5f19846008026200054e565b1980831691505092915050565b5f6200058583836200055a565b9150826002028217905092915050565b620005a08262000331565b67ffffffffffffffff811115620005bc57620005bb6200033b565b5b620005c8825462000395565b620005d5828285620004fe565b5f60209050601f8311600181146200060b575f8415620005f6578287015190505b62000602858262000578565b86555062000671565b601f1984166200061b86620003c9565b5f5b8281101562000644578489015182556001820191506020850194506020810190506200061d565b8683101562000664578489015162000660601f8916826200055a565b8355505b6001600288020188555050505b505050505050565b5f82825260208201905092915050565b7f45524332303a206d696e7420746f20746865207a65726f2061646472657373005f82015250565b5f620006bf601f8362000679565b9150620006cc8262000689565b602082019050919050565b5f6020820190508181035f830152620006f081620006b1565b9050919050565b7f4e487b71000000000000000000000000000000000000000000000000000000005f52601160045260245ffd5b5f62000730826200044b565b91506200073d836200044b565b9250828201905080821115620007585762000757620006f7565b5b92915050565b62000769816200044b565b82525050565b5f602082019050620007845f8301846200075e565b92915050565b61155580620007985f395ff3fe608060405234801561000f575f80fd5b50600436106100cd575f3560e01c806370a082311161008a578063a0712d6811610064578063a0712d6814610227578063a457c2d714610243578063a9059cbb14610273578063dd62ed3e146102a3576100cd565b806370a08231146101bb5780638da5cb5b146101eb57806395d89b4114610209576100cd565b806306fdde03146100d1578063095ea7b3146100ef57806318160ddd1461011f57806323b872dd1461013d578063313ce5671461016d578063395093511461018b575b5f80fd5b6100d96102d3565b6040516100e69190610d4c565b60405180910390f35b61010960048036038101906101049190610dfd565b610363565b6040516101169190610e55565b60405180910390f35b610127610385565b6040516101349190610e7d565b60405180910390f35b61015760048036038101906101529190610e96565b61038e565b6040516101649190610e55565b60405180910390f35b6101756103bc565b6040516101829190610f01565b60405180910390f35b6101a560048036038101906101a09190610dfd565b6103c4565b6040516101b29190610e55565b60405180910390f35b6101d560048036038101906101d09190610f1a565b6103fa565b6040516101e29190610e7d565b60405180910390f35b6101f361043f565b6040516102009190610f54565b60405180910390f35b610211610464565b60405161021e9190610d4c565b60405180910390f35b610241600480360381019061023c9190610f6d565b6104f4565b005b61025d60048036038101906102589190610dfd565b610590565b60405161026a9190610e55565b60405180910390f35b61028d60048036038101906102889190610dfd565b610605565b60405161029a9190610e55565b60405180910390f35b6102bd60048036038101906102b89190610f98565b610627565b6040516102ca9190610e7d565b60405180910390f35b6060600380546102e290611003565b80601f016020809104026020016040519081016040528092919081815260200182805461030e90611003565b80156103595780601f1061033057610100808354040283529160200191610359565b820191905f5260205f20905b81548152906001019060200180831161033c57829003601f168201915b5050505050905090565b5f8061036d6106a9565b905061037a8185856106b0565b600191505092915050565b5f600254905090565b5f806103986106a9565b90506103a5858285610873565b6103b08585856108fe565b60019150509392505050565b5f6012905090565b5f806103ce6106a9565b90506103ef8185856103e08589610627565b6103ea9190611060565b6106b0565b600191505092915050565b5f805f8373ffffffffffffffffffffffffffffffffffffffff1673ffffffffffffffffffffffffffffffffffffffff1681526020019081526020015f20549050919050565b60055f9054906101000a900473ffffffffffffffffffffffffffffffffffffffff1681565b60606004805461047390611003565b80601f016020809104026020016040519081016040528092919081815260200182805461049f90611003565b80156104ea5780601f106104c1576101008083540402835291602001916104ea565b820191905f5260205f20905b8154815290600101906020018083116104cd57829003601f168201915b5050505050905090565b60055f9054906101000a900473ffffffffffffffffffffffffffffffffffffffff1673ffffffffffffffffffffffffffffffffffffffff163373ffffffffffffffffffffffffffffffffffffffff1614610583576040517f08c379a000000000000000000000000000000000000000000000000000000000815260040161057a906110dd565b60405180910390fd5b61058d3382610b6a565b50565b5f8061059a6106a9565b90505f6105a78286610627565b9050838110156105ec576040517f08c379a00000000000000000000000000000000000000000000000000000000081526004016105e39061116b565b60405180910390fd5b6105f982868684036106b0565b60019250505092915050565b5f8061060f6106a9565b905061061c8185856108fe565b600191505092915050565b5f60015f8473ffffffffffffffffffffffffffffffffffffffff1673ffffffffffffffffffffffffffffffffffffffff1681526020019081526020015f205f8373ffffffffffffffffffffffffffffffffffffffff1673ffffffffffffffffffffffffffffffffffffffff1681526020019081526020015f2054905092915050565b5f33905090565b5f73ffffffffffffffffffffffffffffffffffffffff168373ffffffffffffffffffffffffffffffffffffffff160361071e576040517f08c379a0000000000000000000000000000000000000000000000000000000008152600401610715906111f9565b60405180910390fd5b5f73ffffffffffffffffffffffffffffffffffffffff168273ffffffffffffffffffffffffffffffffffffffff160361078c576040517f08c379a000000000000000000000000000000000000000000000000000000000815260040161078390611287565b60405180910390fd5b8060015f8573ffffffffffffffffffffffffffffffffffffffff1673ffffffffffffffffffffffffffffffffffffffff1681526020019081526020015f205f8473ffffffffffffffffffffffffffffffffffffffff1673ffffffffffffffffffffffffffffffffffffffff1681526020019081526020015f20819055508173ffffffffffffffffffffffffffffffffffffffff168373ffffffffffffffffffffffffffffffffffffffff167f8c5be1e5ebec7d5bd14f71427d1e84f3dd0314c0f7b2291e5b200ac8c7c3b925836040516108669190610e7d565b60405180910390a3505050565b5f61087e8484610627565b90507fffffffffffffffffffffffffffffffffffffffffffffffffffffffffffffffff81146108f857818110156108ea576040517f08c379a00000000000000000000000000000000000000000000000000000000081526004016108e1906112ef565b60405180910390fd5b6108f784848484036106b0565b5b50505050565b5f73ffffffffffffffffffffffffffffffffffffffff168373ffffffffffffffffffffffffffffffffffffffff160361096c576040517f08c379a00000000000000000000000000000000000000000000000000000000081526004016109639061137d565b60405180910390fd5b5f73ffffffffffffffffffffffffffffffffffffffff168273ffffffffffffffffffffffffffffffffffffffff16036109da576040517f08c379a00000000000000000000000000000000000000000000000000000000081526004016109d19061140b565b60405180910390fd5b6109e5838383610cb8565b5f805f8573ffffffffffffffffffffffffffffffffffffffff1673ffffffffffffffffffffffffffffffffffffffff1681526020019081526020015f2054905081811015610a68576040517f08c379a0000000000000000000000000000000000000000000000000000000008152600401610a5f90611499565b60405180910390fd5b8181035f808673ffffffffffffffffffffffffffffffffffffffff1673ffffffffffffffffffffffffffffffffffffffff1681526020019081526020015f2081905550815f808573ffffffffffffffffffffffffffffffffffffffff1673ffffffffffffffffffffffffffffffffffffffff1681526020019081526020015f205f82825401925050819055508273ffffffffffffffffffffffffffffffffffffffff168473ffffffffffffffffffffffffffffffffffffffff167fddf252ad1be2c89b69c2b068fc378daa952ba7f163c4a11628f55a4df523b3ef84604051610b519190610e7d565b60405180910390a3610b64848484610cbd565b50505050565b5f73ffffffffffffffffffffffffffffffffffffffff168273ffffffffffffffffffffffffffffffffffffffff1603610bd8576040517f08c379a0000000000000000000000000000000000000000000000000000000008152600401610bcf90611501565b60405180910390fd5b610be35f8383610cb8565b8060025f828254610bf49190611060565b92505081905550805f808473ffffffffffffffffffffffffffffffffffffffff1673ffffffffffffffffffffffffffffffffffffffff1681526020019081526020015f205f82825401925050819055508173ffffffffffffffffffffffffffffffffffffffff165f73ffffffffffffffffffffffffffffffffffffffff167fddf252ad1be2c89b69c2b068fc378daa952ba7f163c4a11628f55a4df523b3ef83604051610ca19190610e7d565b60405180910390a3610cb45f8383610cbd565b5050565b505050565b505050565b5f81519050919050565b5f82825260208201905092915050565b5f5b83811015610cf9578082015181840152602081019050610cde565b5f8484015250505050565b5f601f19601f8301169050919050565b5f610d1e82610cc2565b610d288185610ccc565b9350610d38818560208601610cdc565b610d4181610d04565b840191505092915050565b5f6020820190508181035f830152610d648184610d14565b905092915050565b5f80fd5b5f73ffffffffffffffffffffffffffffffffffffffff82169050919050565b5f610d9982610d70565b9050919050565b610da981610d8f565b8114610db3575f80fd5b50565b5f81359050610dc481610da0565b92915050565b5f819050919050565b610ddc81610dca565b8114610de6575f80fd5b50565b5f81359050610df781610dd3565b92915050565b5f8060408385031215610e1357610e12610d6c565b5b5f610e2085828601610db6565b9250506020610e3185828601610de9565b9150509250929050565b5f8115159050919050565b610e4f81610e3b565b82525050565b5f602082019050610e685f830184610e46565b92915050565b610e7781610dca565b82525050565b5f602082019050610e905f830184610e6e565b92915050565b5f805f60608486031215610ead57610eac610d6c565b5b5f610eba86828701610db6565b9350506020610ecb86828701610db6565b9250506040610edc86828701610de9565b9150509250925092565b5f60ff82169050919050565b610efb81610ee6565b82525050565b5f602082019050610f145f830184610ef2565b92915050565b5f60208284031215610f2f57610f2e610d6c565b5b5f610f3c84828501610db6565b91505092915050565b610f4e81610d8f565b82525050565b5f602082019050610f675f830184610f45565b92915050565b5f60208284031215610f8257610f81610d6c565b5b5f610f8f84828501610de9565b91505092915050565b5f8060408385031215610fae57610fad610d6c565b5b5f610fbb85828601610db6565b9250506020610fcc85828601610db6565b9150509250929050565b7f4e487b71000000000000000000000000000000000000000000000000000000005f52602260045260245ffd5b5f600282049050600182168061101a57607f821691505b60208210810361102d5761102c610fd6565b5b50919050565b7f4e487b71000000000000000000000000000000000000000000000000000000005f52601160045260245ffd5b5f61106a82610dca565b915061107583610dca565b925082820190508082111561108d5761108c611033565b5b92915050565b7f4f6e6c792063616c6c61626c65206279206f776e6572000000000000000000005f82015250565b5f6110c7601683610ccc565b91506110d282611093565b602082019050919050565b5f6020820190508181035f8301526110f4816110bb565b9050919050565b7f45524332303a2064656372656173656420616c6c6f77616e63652062656c6f775f8201527f207a65726f000000000000000000000000000000000000000000000000000000602082015250565b5f611155602583610ccc565b9150611160826110fb565b604082019050919050565b5f6020820190508181035f83015261118281611149565b9050919050565b7f45524332303a20617070726f76652066726f6d20746865207a65726f206164645f8201527f7265737300000000000000000000000000000000000000000000000000000000602082015250565b5f6111e3602483610ccc565b91506111ee82611189565b604082019050919050565b5f6020820190508181035f830152611210816111d7565b9050919050565b7f45524332303a20617070726f766520746f20746865207a65726f2061646472655f8201527f7373000000000000000000000000000000000000000000000000000000000000602082015250565b5f611271602283610ccc565b915061127c82611217565b604082019050919050565b5f6020820190508181035f83015261129e81611265565b9050919050565b7f45524332303a20696e73756666696369656e7420616c6c6f77616e63650000005f82015250565b5f6112d9601d83610ccc565b91506112e4826112a5565b602082019050919050565b5f6020820190508181035f830152611306816112cd565b9050919050565b7f45524332303a207472616e736665722066726f6d20746865207a65726f2061645f8201527f6472657373000000000000000000000000000000000000000000000000000000602082015250565b5f611367602583610ccc565b91506113728261130d565b604082019050919050565b5f6020820190508181035f8301526113948161135b565b9050919050565b7f45524332303a207472616e7366657220746f20746865207a65726f20616464725f8201527f6573730000000000000000000000000000000000000000000000000000000000602082015250565b5f6113f5602383610ccc565b91506114008261139b565b604082019050919050565b5f6020820190508181035f830152611422816113e9565b9050919050565b7f45524332303a207472616e7366657220616d6f756e74206578636565647320625f8201527f616c616e63650000000000000000000000000000000000000000000000000000602082015250565b5f611483602683610ccc565b915061148e82611429565b604082019050919050565b5f6020820190508181035f8301526114b081611477565b9050919050565b7f45524332303a206d696e7420746f20746865207a65726f2061646472657373005f82015250565b5f6114eb601f83610ccc565b91506114f6826114b7565b602082019050919050565b5f6020820190508181035f830152611518816114df565b905091905056fea264697066735822122079e8ed32551a3ec05820ed180be458d5438d29d4bd18d333487b4e7ad468d3e464736f6c63430008140033",
  "linkReferences": {},
  "deployedLinkReferences": {}
}